{
  "_format": "hh-sol-artifact-1",
  "contractName": "AirpodMan",
  "sourceName": "contracts/AirpodMan.sol",
  "abi": [
    {
      "inputs": [
        {
          "internalType": "uint256",
          "name": "",
          "type": "uint256"
        }
      ],
      "name": "airpodMan",
      "outputs": [
        {
          "internalType": "string",
          "name": "name",
          "type": "string"
        },
        {
          "internalType": "string",
          "name": "email",
          "type": "string"
        },
        {
          "internalType": "string",
          "name": "description",
          "type": "string"
        },
        {
          "internalType": "string",
          "name": "image",
          "type": "string"
        },
        {
          "internalType": "string",
          "name": "background",
          "type": "string"
        },
        {
          "internalType": "string",
          "name": "skinColour",
          "type": "string"
        },
        {
          "internalType": "string",
          "name": "eyes",
          "type": "string"
        },
        {
          "internalType": "string",
          "name": "nose",
          "type": "string"
        },
        {
          "internalType": "string",
          "name": "mouth",
          "type": "string"
        },
        {
          "internalType": "string",
          "name": "rarity",
          "type": "string"
        }
      ],
      "stateMutability": "view",
      "type": "function"
    },
    {
      "inputs": [
        {
          "components": [
            {
              "internalType": "string",
              "name": "name",
              "type": "string"
            },
            {
              "internalType": "string",
              "name": "email",
              "type": "string"
            },
            {
              "internalType": "string",
              "name": "description",
              "type": "string"
            },
            {
              "internalType": "string",
              "name": "image",
              "type": "string"
            },
            {
              "internalType": "string",
              "name": "background",
              "type": "string"
            },
            {
              "internalType": "string",
              "name": "skinColour",
              "type": "string"
            },
            {
              "internalType": "string",
              "name": "eyes",
              "type": "string"
            },
            {
              "internalType": "string",
              "name": "nose",
              "type": "string"
            },
            {
              "internalType": "string",
              "name": "mouth",
              "type": "string"
            },
            {
              "internalType": "string",
              "name": "rarity",
              "type": "string"
            }
          ],
          "internalType": "struct _Airpodman",
          "name": "airpodMans",
          "type": "tuple"
        }
      ],
      "name": "create",
      "outputs": [],
      "stateMutability": "nonpayable",
      "type": "function"
    },
    {
      "inputs": [],
      "name": "getAirpodMan",
      "outputs": [
        {
          "components": [
            {
              "internalType": "string",
              "name": "name",
              "type": "string"
            },
            {
              "internalType": "string",
              "name": "email",
              "type": "string"
            },
            {
              "internalType": "string",
              "name": "description",
              "type": "string"
            },
            {
              "internalType": "string",
              "name": "image",
              "type": "string"
            },
            {
              "internalType": "string",
              "name": "background",
              "type": "string"
            },
            {
              "internalType": "string",
              "name": "skinColour",
              "type": "string"
            },
            {
              "internalType": "string",
              "name": "eyes",
              "type": "string"
            },
            {
              "internalType": "string",
              "name": "nose",
              "type": "string"
            },
            {
              "internalType": "string",
              "name": "mouth",
              "type": "string"
            },
            {
              "internalType": "string",
              "name": "rarity",
              "type": "string"
            }
          ],
          "internalType": "struct _Airpodman[]",
          "name": "",
          "type": "tuple[]"
        }
      ],
      "stateMutability": "view",
      "type": "function"
    }
  ],
  "bytecode": "0x608060405234801561001057600080fd5b5061182b806100206000396000f3fe608060405234801561001057600080fd5b50600436106100415760003560e01c806332d86a73146100465780633c81016614610064578063714273971461009d575b600080fd5b61004e6100b9565b60405161005b91906114ae565b60405180910390f35b61007e60048036038101906100799190611271565b6106cd565b6040516100949a999897969594939291906114f2565b60405180910390f35b6100b760048036038101906100b29190611230565b610c81565b005b60606000805480602002602001604051908101604052809291908181526020016000905b828210156106c457838290600052602060002090600a020160405180610140016040529081600082018054610111906116dc565b80601f016020809104026020016040519081016040528092919081815260200182805461013d906116dc565b801561018a5780601f1061015f5761010080835404028352916020019161018a565b820191906000526020600020905b81548152906001019060200180831161016d57829003601f168201915b505050505081526020016001820180546101a3906116dc565b80601f01602080910402602001604051908101604052809291908181526020018280546101cf906116dc565b801561021c5780601f106101f15761010080835404028352916020019161021c565b820191906000526020600020905b8154815290600101906020018083116101ff57829003601f168201915b50505050508152602001600282018054610235906116dc565b80601f0160208091040260200160405190810160405280929190818152602001828054610261906116dc565b80156102ae5780601f10610283576101008083540402835291602001916102ae565b820191906000526020600020905b81548152906001019060200180831161029157829003601f168201915b505050505081526020016003820180546102c7906116dc565b80601f01602080910402602001604051908101604052809291908181526020018280546102f3906116dc565b80156103405780601f1061031557610100808354040283529160200191610340565b820191906000526020600020905b81548152906001019060200180831161032357829003601f168201915b50505050508152602001600482018054610359906116dc565b80601f0160208091040260200160405190810160405280929190818152602001828054610385906116dc565b80156103d25780601f106103a7576101008083540402835291602001916103d2565b820191906000526020600020905b8154815290600101906020018083116103b557829003601f168201915b505050505081526020016005820180546103eb906116dc565b80601f0160208091040260200160405190810160405280929190818152602001828054610417906116dc565b80156104645780601f1061043957610100808354040283529160200191610464565b820191906000526020600020905b81548152906001019060200180831161044757829003601f168201915b5050505050815260200160068201805461047d906116dc565b80601f01602080910402602001604051908101604052809291908181526020018280546104a9906116dc565b80156104f65780601f106104cb576101008083540402835291602001916104f6565b820191906000526020600020905b8154815290600101906020018083116104d957829003601f168201915b5050505050815260200160078201805461050f906116dc565b80601f016020809104026020016040519081016040528092919081815260200182805461053b906116dc565b80156105885780601f1061055d57610100808354040283529160200191610588565b820191906000526020600020905b81548152906001019060200180831161056b57829003601f168201915b505050505081526020016008820180546105a1906116dc565b80601f01602080910402602001604051908101604052809291908181526020018280546105cd906116dc565b801561061a5780601f106105ef5761010080835404028352916020019161061a565b820191906000526020600020905b8154815290600101906020018083116105fd57829003601f168201915b50505050508152602001600982018054610633906116dc565b80601f016020809104026020016040519081016040528092919081815260200182805461065f906116dc565b80156106ac5780601f10610681576101008083540402835291602001916106ac565b820191906000526020600020905b81548152906001019060200180831161068f57829003601f168201915b505050505081525050815260200190600101906100dd565b50505050905090565b600081815481106106dd57600080fd5b90600052602060002090600a0201600091509050806000018054610700906116dc565b80601f016020809104026020016040519081016040528092919081815260200182805461072c906116dc565b80156107795780601f1061074e57610100808354040283529160200191610779565b820191906000526020600020905b81548152906001019060200180831161075c57829003601f168201915b50505050509080600101805461078e906116dc565b80601f01602080910402602001604051908101604052809291908181526020018280546107ba906116dc565b80156108075780601f106107dc57610100808354040283529160200191610807565b820191906000526020600020905b8154815290600101906020018083116107ea57829003601f168201915b50505050509080600201805461081c906116dc565b80601f0160208091040260200160405190810160405280929190818152602001828054610848906116dc565b80156108955780601f1061086a57610100808354040283529160200191610895565b820191906000526020600020905b81548152906001019060200180831161087857829003601f168201915b5050505050908060030180546108aa906116dc565b80601f01602080910402602001604051908101604052809291908181526020018280546108d6906116dc565b80156109235780601f106108f857610100808354040283529160200191610923565b820191906000526020600020905b81548152906001019060200180831161090657829003601f168201915b505050505090806004018054610938906116dc565b80601f0160208091040260200160405190810160405280929190818152602001828054610964906116dc565b80156109b15780601f10610986576101008083540402835291602001916109b1565b820191906000526020600020905b81548152906001019060200180831161099457829003601f168201915b5050505050908060050180546109c6906116dc565b80601f01602080910402602001604051908101604052809291908181526020018280546109f2906116dc565b8015610a3f5780601f10610a1457610100808354040283529160200191610a3f565b820191906000526020600020905b815481529060010190602001808311610a2257829003601f168201915b505050505090806006018054610a54906116dc565b80601f0160208091040260200160405190810160405280929190818152602001828054610a80906116dc565b8015610acd5780601f10610aa257610100808354040283529160200191610acd565b820191906000526020600020905b815481529060010190602001808311610ab057829003601f168201915b505050505090806007018054610ae2906116dc565b80601f0160208091040260200160405190810160405280929190818152602001828054610b0e906116dc565b8015610b5b5780601f10610b3057610100808354040283529160200191610b5b565b820191906000526020600020905b815481529060010190602001808311610b3e57829003601f168201915b505050505090806008018054610b70906116dc565b80601f0160208091040260200160405190810160405280929190818152602001828054610b9c906116dc565b8015610be95780601f10610bbe57610100808354040283529160200191610be9565b820191906000526020600020905b815481529060010190602001808311610bcc57829003601f168201915b505050505090806009018054610bfe906116dc565b80601f0160208091040260200160405190810160405280929190818152602001828054610c2a906116dc565b8015610c775780601f10610c4c57610100808354040283529160200191610c77565b820191906000526020600020905b815481529060010190602001808311610c5a57829003601f168201915b505050505090508a565b610ca26040518060600160405280603081526020016117c660309139610e6c565b600060405180610140016040528083600001518152602001836020015181526020018360400151815260200183606001518152602001836080015181526020018360a0015181526020018360c0015181526020018360e0015181526020018361010001518152602001836101200151815250905060008190806001815401808255809150506001900390600052602060002090600a02016000909190919091506000820151816000019080519060200190610d5e929190610f2e565b506020820151816001019080519060200190610d7b929190610f2e565b506040820151816002019080519060200190610d98929190610f2e565b506060820151816003019080519060200190610db5929190610f2e565b506080820151816004019080519060200190610dd2929190610f2e565b5060a0820151816005019080519060200190610def929190610f2e565b5060c0820151816006019080519060200190610e0c929190610f2e565b5060e0820151816007019080519060200190610e29929190610f2e565b50610100820151816008019080519060200190610e47929190610f2e565b50610120820151816009019080519060200190610e65929190610f2e565b5050505050565b610f0281604051602401610e8091906114d0565b6040516020818303038152906040527f41304fac000000000000000000000000000000000000000000000000000000007bffffffffffffffffffffffffffffffffffffffffffffffffffffffff19166020820180517bffffffffffffffffffffffffffffffffffffffffffffffffffffffff8381831617835250505050610f05565b50565b60008151905060006a636f6e736f6c652e6c6f679050602083016000808483855afa5050505050565b828054610f3a906116dc565b90600052602060002090601f016020900481019282610f5c5760008555610fa3565b82601f10610f7557805160ff1916838001178555610fa3565b82800160010185558215610fa3579182015b82811115610fa2578251825591602001919060010190610f87565b5b509050610fb09190610fb4565b5090565b5b80821115610fcd576000816000905550600101610fb5565b5090565b6000610fe4610fdf846115f9565b6115d4565b905082815260208101848484011115610ffc57600080fd5b61100784828561169a565b509392505050565b600082601f83011261102057600080fd5b8135611030848260208601610fd1565b91505092915050565b6000610140828403121561104c57600080fd5b6110576101406115d4565b9050600082013567ffffffffffffffff81111561107357600080fd5b61107f8482850161100f565b600083015250602082013567ffffffffffffffff81111561109f57600080fd5b6110ab8482850161100f565b602083015250604082013567ffffffffffffffff8111156110cb57600080fd5b6110d78482850161100f565b604083015250606082013567ffffffffffffffff8111156110f757600080fd5b6111038482850161100f565b606083015250608082013567ffffffffffffffff81111561112357600080fd5b61112f8482850161100f565b60808301525060a082013567ffffffffffffffff81111561114f57600080fd5b61115b8482850161100f565b60a08301525060c082013567ffffffffffffffff81111561117b57600080fd5b6111878482850161100f565b60c08301525060e082013567ffffffffffffffff8111156111a757600080fd5b6111b38482850161100f565b60e08301525061010082013567ffffffffffffffff8111156111d457600080fd5b6111e08482850161100f565b6101008301525061012082013567ffffffffffffffff81111561120257600080fd5b61120e8482850161100f565b6101208301525092915050565b60008135905061122a816117ae565b92915050565b60006020828403121561124257600080fd5b600082013567ffffffffffffffff81111561125c57600080fd5b61126884828501611039565b91505092915050565b60006020828403121561128357600080fd5b60006112918482850161121b565b91505092915050565b60006112a68383611395565b905092915050565b60006112b98261163a565b6112c3818561165d565b9350836020820285016112d58561162a565b8060005b8581101561131157848403895281516112f2858261129a565b94506112fd83611650565b925060208a019950506001810190506112d9565b50829750879550505050505092915050565b600061132e82611645565b611338818561166e565b93506113488185602086016116a9565b6113518161179d565b840191505092915050565b600061136782611645565b611371818561167f565b93506113818185602086016116a9565b61138a8161179d565b840191505092915050565b60006101408301600083015184820360008601526113b38282611323565b915050602083015184820360208601526113cd8282611323565b915050604083015184820360408601526113e78282611323565b915050606083015184820360608601526114018282611323565b9150506080830151848203608086015261141b8282611323565b91505060a083015184820360a08601526114358282611323565b91505060c083015184820360c086015261144f8282611323565b91505060e083015184820360e08601526114698282611323565b9150506101008301518482036101008601526114858282611323565b9150506101208301518482036101208601526114a18282611323565b9150508091505092915050565b600060208201905081810360008301526114c881846112ae565b905092915050565b600060208201905081810360008301526114ea818461135c565b905092915050565b600061014082019050818103600083015261150d818d61135c565b90508181036020830152611521818c61135c565b90508181036040830152611535818b61135c565b90508181036060830152611549818a61135c565b9050818103608083015261155d818961135c565b905081810360a0830152611571818861135c565b905081810360c0830152611585818761135c565b905081810360e0830152611599818661135c565b90508181036101008301526115ae818561135c565b90508181036101208301526115c3818461135c565b90509b9a5050505050505050505050565b60006115de6115ef565b90506115ea828261170e565b919050565b6000604051905090565b600067ffffffffffffffff8211156116145761161361176e565b5b61161d8261179d565b9050602081019050919050565b6000819050602082019050919050565b600081519050919050565b600081519050919050565b6000602082019050919050565b600082825260208201905092915050565b600082825260208201905092915050565b600082825260208201905092915050565b6000819050919050565b82818337600083830152505050565b60005b838110156116c75780820151818401526020810190506116ac565b838111156116d6576000848401525b50505050565b600060028204905060018216806116f457607f821691505b602082108114156117085761170761173f565b5b50919050565b6117178261179d565b810181811067ffffffffffffffff821117156117365761173561176e565b5b80604052505050565b7f4e487b7100000000000000000000000000000000000000000000000000000000600052602260045260246000fd5b7f4e487b7100000000000000000000000000000000000000000000000000000000600052604160045260246000fd5b6000601f19601f8301169050919050565b6117b781611690565b81146117c257600080fd5b5056fe4f4b204920616d206d616b696e672074686520636f6e74726163742c206a7573742074686973206f6e6365206d696e64a26469706673582212200e1e1b226c7d396eed25870815d30439210fb00cb3f658f3568d3a7261ea0c5064736f6c63430008040033",
  "linkReferences": {},
  "deployedLinkReferences": {}
}